{
  "contractName": "PrescriptionsRegistry",
  "abi": [
    {
      "inputs": [],
      "payable": false,
      "stateMutability": "nonpayable",
      "type": "constructor"
    },
    {
      "constant": false,
      "inputs": [
        {
          "name": "prescriptionHash",
          "type": "string"
        }
      ],
      "name": "createPrescription",
      "outputs": [],
      "payable": false,
      "stateMutability": "nonpayable",
      "type": "function"
    },
    {
      "constant": true,
      "inputs": [
        {
          "name": "prescriptionHash",
          "type": "string"
        }
      ],
      "name": "getPrescriptionPrescriber",
      "outputs": [
        {
          "name": "",
          "type": "address"
        }
      ],
      "payable": false,
      "stateMutability": "view",
      "type": "function"
    }
  ],
  "bytecode": "0x608060405234801561001057600080fd5b50610660806100206000396000f30060806040526004361061004c576000357c0100000000000000000000000000000000000000000000000000000000900463ffffffff168063113a857f1461005157806394eeb7e2146100fa575b600080fd5b34801561005d57600080fd5b506100b8600480360381019080803590602001908201803590602001908080601f0160208091040260200160405190810160405280939291908181526020018383808284378201915050505050509192919290505050610163565b604051808273ffffffffffffffffffffffffffffffffffffffff1673ffffffffffffffffffffffffffffffffffffffff16815260200191505060405180910390f35b34801561010657600080fd5b50610161600480360381019080803590602001908201803590602001908080601f01602080910402602001604051908101604052809392919081815260200183838082843782019150505050505091929192905050506101fb565b005b60006001826040518082805190602001908083835b60208310151561019d5780518252602082019150602081019050602083039250610178565b6001836020036101000a038019825116818451168082178552505050505050905001915050908152602001604051809103902060010160009054906101000a900473ffffffffffffffffffffffffffffffffffffffff169050919050565b6102048161057b565b151561029e576040517f08c379a00000000000000000000000000000000000000000000000000000000081526004018080602001828103825260248152602001807f4120707265736372697074696f6e2068617368206d7573742062652070726f7681526020017f696465640000000000000000000000000000000000000000000000000000000081525060400191505060405180910390fd5b6000816040518082805190602001908083835b6020831015156102d657805182526020820191506020810190506020830392506102b1565b6001836020036101000a038019825116818451168082178552505050505050905001915050908152602001604051809103902060009054906101000a900460ff161515156103b2576040517f08c379a00000000000000000000000000000000000000000000000000000000081526004018080602001828103825260288152602001807f54686520707265736372697074696f6e206861736820697320616c726561647981526020017f20696e207573652e00000000000000000000000000000000000000000000000081525060400191505060405180910390fd5b806001826040518082805190602001908083835b6020831015156103eb57805182526020820191506020810190506020830392506103c6565b6001836020036101000a0380198251168184511680821785525050505050509050019150509081526020016040518091039020600001908051906020019061043492919061058f565b50336001826040518082805190602001908083835b60208310151561046e5780518252602082019150602081019050602083039250610449565b6001836020036101000a038019825116818451168082178552505050505050905001915050908152602001604051809103902060010160006101000a81548173ffffffffffffffffffffffffffffffffffffffff021916908373ffffffffffffffffffffffffffffffffffffffff16021790555060016000826040518082805190602001908083835b60208310151561051c57805182526020820191506020810190506020830392506104f7565b6001836020036101000a038019825116818451168082178552505050505050905001915050908152602001604051809103902060006101000a81548160ff02191690831515021790555060026000815480929190600101919050555050565b600060608290506000815111915050919050565b828054600181600116156101000203166002900490600052602060002090601f016020900481019282601f106105d057805160ff19168380011785556105fe565b828001600101855582156105fe579182015b828111156105fd5782518255916020019190600101906105e2565b5b50905061060b919061060f565b5090565b61063191905b8082111561062d576000816000905550600101610615565b5090565b905600a165627a7a723058209367fe888ea53fab2336baea9a3582bff2d23fad9a56dea08e23d5f0184f72e50029",
  "source": "pragma solidity ^0.4.23;\r\n\r\n/// The purpose of this contract is to track a prescription and validate\r\n/// its integrity\r\ncontract PrescriptionsRegistry {\r\n    \r\n\t// This will incurr in double storage, but we must ensure the hashes are not reused\r\n\tmapping(string => bool) private _prescriptionHashesInUse;\r\n\tmapping(string => Prescription) private _prescriptions;\r\n\t\r\n    uint256 private _count;\r\n\t\r\n    struct Prescription {\r\n        string PrescriptionHash;\r\n        address PrescriberAddress;\r\n    }\r\n    \r\n    function stringNotNullNorEmpty(string value) private pure returns (bool) {\r\n        bytes memory tempEmptyStringTest = bytes(value); // Uses memory\r\n        return (tempEmptyStringTest.length > 0);\r\n    }\r\n\r\n    constructor() public {\r\n\t}\r\n\t\r\n    /// This method creates a ledger in the chain for all Rx\r\n    /// The prescriptionHash represents a pointer to the IPFS resource as well as the contents of the resource\r\n\tfunction createPrescription(string prescriptionHash) public {\r\n\r\n        require(stringNotNullNorEmpty(prescriptionHash), 'A prescription hash must be provided');\r\n\r\n        // Require the hash is unique\r\n        require(!_prescriptionHashesInUse[prescriptionHash], 'The prescription hash is already in use.');\r\n\r\n        _prescriptions[prescriptionHash].PrescriptionHash = prescriptionHash;\r\n        _prescriptions[prescriptionHash].PrescriberAddress = msg.sender;\r\n        \r\n        _prescriptionHashesInUse[prescriptionHash] = true;\r\n        \r\n        // This takes the problem of the count\r\n\t    _count++;\r\n    }\r\n    \r\n    function getPrescriptionPrescriber(string prescriptionHash) public view returns (address) {\r\n        return _prescriptions[prescriptionHash].PrescriberAddress;\r\n    }\r\n}",
  "sourcePath": "C:\\Personal\\Hackathon\\Pharma-Sign\\contracts\\PrescriptionsRegistry.sol",
  "compiler": {
    "name": "solc",
    "version": "0.4.24+commit.e67f0147.Emscripten.clang"
  },
  "schemaVersion": "2.0.1",
  "updatedAt": "2018-10-13T22:02:25.868Z"
}