{
  "contractName": "PrescriptionsRegistry",
  "abi": [
    {
      "inputs": [],
      "payable": false,
      "stateMutability": "nonpayable",
      "type": "constructor"
    },
    {
      "constant": false,
      "inputs": [
        {
          "name": "prescriptionHash",
          "type": "string"
        }
      ],
      "name": "createPrescription",
      "outputs": [],
      "payable": false,
      "stateMutability": "nonpayable",
      "type": "function"
    },
    {
      "constant": true,
      "inputs": [
        {
          "name": "prescriptionHash",
          "type": "string"
        }
      ],
      "name": "getPrescriptionPrescriber",
      "outputs": [
        {
          "name": "",
          "type": "address"
        }
      ],
      "payable": false,
      "stateMutability": "view",
      "type": "function"
    }
  ],
  "bytecode": "0x608060405234801561001057600080fd5b506105a9806100206000396000f30060806040526004361061004c576000357c0100000000000000000000000000000000000000000000000000000000900463ffffffff168063113a857f1461005157806394eeb7e2146100fa575b600080fd5b34801561005d57600080fd5b506100b8600480360381019080803590602001908201803590602001908080601f0160208091040260200160405190810160405280939291908181526020018383808284378201915050505050509192919290505050610163565b604051808273ffffffffffffffffffffffffffffffffffffffff1673ffffffffffffffffffffffffffffffffffffffff16815260200191505060405180910390f35b34801561010657600080fd5b50610161600480360381019080803590602001908201803590602001908080601f01602080910402602001604051908101604052809392919081815260200183838082843782019150505050505091929192905050506101fb565b005b60006001826040518082805190602001908083835b60208310151561019d5780518252602082019150602081019050602083039250610178565b6001836020036101000a038019825116818451168082178552505050505050905001915050908152602001604051809103902060010160009054906101000a900473ffffffffffffffffffffffffffffffffffffffff169050919050565b6000816040518082805190602001908083835b602083101515610233578051825260208201915060208101905060208303925061020e565b6001836020036101000a038019825116818451168082178552505050505050905001915050908152602001604051809103902060009054906101000a900460ff1615151561030f576040517f08c379a00000000000000000000000000000000000000000000000000000000081526004018080602001828103825260288152602001807f54686520707265736372697074696f6e206861736820697320616c726561647981526020017f20696e207573652e00000000000000000000000000000000000000000000000081525060400191505060405180910390fd5b806001826040518082805190602001908083835b6020831015156103485780518252602082019150602081019050602083039250610323565b6001836020036101000a038019825116818451168082178552505050505050905001915050908152602001604051809103902060000190805190602001906103919291906104d8565b50336001826040518082805190602001908083835b6020831015156103cb57805182526020820191506020810190506020830392506103a6565b6001836020036101000a038019825116818451168082178552505050505050905001915050908152602001604051809103902060010160006101000a81548173ffffffffffffffffffffffffffffffffffffffff021916908373ffffffffffffffffffffffffffffffffffffffff16021790555060016000826040518082805190602001908083835b6020831015156104795780518252602082019150602081019050602083039250610454565b6001836020036101000a038019825116818451168082178552505050505050905001915050908152602001604051809103902060006101000a81548160ff02191690831515021790555060026000815480929190600101919050555050565b828054600181600116156101000203166002900490600052602060002090601f016020900481019282601f1061051957805160ff1916838001178555610547565b82800160010185558215610547579182015b8281111561054657825182559160200191906001019061052b565b5b5090506105549190610558565b5090565b61057a91905b8082111561057657600081600090555060010161055e565b5090565b905600a165627a7a72305820bf21b982b063a892f046720319aa94db1ce1d19fa9bb86e1458847339a2696ca0029",
  "source": "pragma solidity ^0.4.23;\r\n\r\n/// The purpose of this contract is to track a prescription and validate\r\n/// its integrity\r\ncontract PrescriptionsRegistry {\r\n    \r\n\t// This will incurr in double storage, but we must ensure the hashes are not reused\r\n\tmapping(string => bool) private _prescriptionHashesInUse;\r\n\tmapping(string => Prescription) private _prescriptions;\r\n\t\r\n    uint256 private _count;\r\n\t\r\n    struct Prescription {\r\n        string PrescriptionHash;\r\n        address PrescriberAddress;\r\n    }\r\n    \r\n    \r\n    constructor() public {\r\n\t}\r\n\t\r\n    /// This method creates a ledger in the chain for all Rx\r\n    /// The prescriptionHash represents a pointer to the IPFS resource as well as the contents of the resource\r\n\tfunction createPrescription(string prescriptionHash) public {\r\n\r\n        // Require the hash is unique\r\n        require(!_prescriptionHashesInUse[prescriptionHash], 'The prescription hash is already in use.');\r\n\r\n        _prescriptions[prescriptionHash].PrescriptionHash = prescriptionHash;\r\n        _prescriptions[prescriptionHash].PrescriberAddress = msg.sender;\r\n        \r\n        _prescriptionHashesInUse[prescriptionHash] = true;\r\n        \r\n        // This takes the problem of the count\r\n\t    _count++;\r\n    }\r\n    \r\n    function getPrescriptionPrescriber(string prescriptionHash) public view returns (address) {\r\n        return _prescriptions[prescriptionHash].PrescriberAddress;\r\n    }\r\n}",
  "sourcePath": "C:\\Personal\\Hackathon\\Pharma-Sign\\contracts\\PrescriptionsRegistry.sol",
  "compiler": {
    "name": "solc",
    "version": "0.4.24+commit.e67f0147.Emscripten.clang"
  },
  "schemaVersion": "2.0.1",
  "updatedAt": "2018-10-13T19:51:58.067Z"
}