{
  "contractName": "WhitelistRegistry",
  "abi": [
    {
      "constant": true,
      "inputs": [
        {
          "name": "",
          "type": "address"
        }
      ],
      "name": "doctorNames",
      "outputs": [
        {
          "name": "",
          "type": "string"
        }
      ],
      "payable": false,
      "stateMutability": "view",
      "type": "function"
    },
    {
      "constant": true,
      "inputs": [
        {
          "name": "",
          "type": "address"
        }
      ],
      "name": "pharmacyNames",
      "outputs": [
        {
          "name": "",
          "type": "string"
        }
      ],
      "payable": false,
      "stateMutability": "view",
      "type": "function"
    },
    {
      "constant": true,
      "inputs": [
        {
          "name": "",
          "type": "address"
        }
      ],
      "name": "verifiedPharmacies",
      "outputs": [
        {
          "name": "",
          "type": "bool"
        }
      ],
      "payable": false,
      "stateMutability": "view",
      "type": "function"
    },
    {
      "constant": true,
      "inputs": [
        {
          "name": "",
          "type": "address"
        }
      ],
      "name": "verifiedDoctors",
      "outputs": [
        {
          "name": "",
          "type": "bool"
        }
      ],
      "payable": false,
      "stateMutability": "view",
      "type": "function"
    },
    {
      "inputs": [],
      "payable": false,
      "stateMutability": "nonpayable",
      "type": "constructor"
    },
    {
      "constant": true,
      "inputs": [
        {
          "name": "_doctorPublicKey",
          "type": "address"
        }
      ],
      "name": "isValidDoctor",
      "outputs": [
        {
          "name": "",
          "type": "bool"
        }
      ],
      "payable": false,
      "stateMutability": "view",
      "type": "function"
    },
    {
      "constant": true,
      "inputs": [
        {
          "name": "_pharmacyPublicKey",
          "type": "address"
        }
      ],
      "name": "isValidPharmacy",
      "outputs": [
        {
          "name": "",
          "type": "bool"
        }
      ],
      "payable": false,
      "stateMutability": "view",
      "type": "function"
    },
    {
      "constant": true,
      "inputs": [
        {
          "name": "_doctorPublicKey",
          "type": "address"
        }
      ],
      "name": "getDoctorName",
      "outputs": [
        {
          "name": "",
          "type": "string"
        }
      ],
      "payable": false,
      "stateMutability": "view",
      "type": "function"
    },
    {
      "constant": true,
      "inputs": [
        {
          "name": "_pharmacyPublicKey",
          "type": "address"
        }
      ],
      "name": "getPharmacyName",
      "outputs": [
        {
          "name": "",
          "type": "string"
        }
      ],
      "payable": false,
      "stateMutability": "view",
      "type": "function"
    }
  ],
  "bytecode": "0x608060405234801561001057600080fd5b506001600080731bdd1734a0bf7870c20c794debb3c82fabb6678973ffffffffffffffffffffffffffffffffffffffff1673ffffffffffffffffffffffffffffffffffffffff16815260200190815260200160002060006101000a81548160ff0219169083151502179055506001600080736a8bd7c2c0d0c6d7ffdd1f6d3d82f83a4c17d22e73ffffffffffffffffffffffffffffffffffffffff16815260200190815260200160002060006101000a81548160ff0219169083151502179055506001600080736d1d4f6231cc9d28846827c7744ee78ee507928e73ffffffffffffffffffffffffffffffffffffffff16815260200190815260200160002060006101000a81548160ff0219169083151502179055506040805190810160405280600e81526020017f44722e204a6f686e20536d69746800000000000000000000000000000000000081525060026000731bdd1734a0bf7870c20c794debb3c82fabb6678973ffffffffffffffffffffffffffffffffffffffff1673ffffffffffffffffffffffffffffffffffffffff16815260200190815260200160002090805190602001906101c2929190610672565b506040805190810160405280601481526020017f44722e20456c697a61626574682048756768657300000000000000000000000081525060026000736a8bd7c2c0d0c6d7ffdd1f6d3d82f83a4c17d22e73ffffffffffffffffffffffffffffffffffffffff1681526020019081526020016000209080519060200190610249929190610672565b506040805190810160405280600d81526020017f44722e204572696320576172640000000000000000000000000000000000000081525060026000736d1d4f6231cc9d28846827c7744ee78ee507928e73ffffffffffffffffffffffffffffffffffffffff16815260200190815260200160002090805190602001906102d0929190610672565b5060018060007394a5168c78e41c637c1b45544363d76034949dc573ffffffffffffffffffffffffffffffffffffffff1673ffffffffffffffffffffffffffffffffffffffff16815260200190815260200160002060006101000a81548160ff0219169083151502179055506001806000730b70470e3d2b5f264e8e5add8a8ff0e8cd3b606273ffffffffffffffffffffffffffffffffffffffff16815260200190815260200160002060006101000a81548160ff02191690831515021790555060018060007340f6acb9da087cb9ff9e602a01df3fb6e3157a1473ffffffffffffffffffffffffffffffffffffffff16815260200190815260200160002060006101000a81548160ff02191690831515021790555060018060007305f8ac21e6b8c483c402472ed738aea13d07c31e73ffffffffffffffffffffffffffffffffffffffff16815260200190815260200160002060006101000a81548160ff0219169083151502179055506040805190810160405280600a81526020017f435653204865616c746800000000000000000000000000000000000000000000815250600360007394a5168c78e41c637c1b45544363d76034949dc573ffffffffffffffffffffffffffffffffffffffff1673ffffffffffffffffffffffffffffffffffffffff16815260200190815260200160002090805190602001906104d7929190610672565b506040805190810160405280601281526020017f57616c677265656e7320506861726d616379000000000000000000000000000081525060036000730b70470e3d2b5f264e8e5add8a8ff0e8cd3b606273ffffffffffffffffffffffffffffffffffffffff168152602001908152602001600020908051906020019061055e929190610672565b506040805190810160405280601081526020017f5269746561696420506861726d61637900000000000000000000000000000000815250600360007340f6acb9da087cb9ff9e602a01df3fb6e3157a1473ffffffffffffffffffffffffffffffffffffffff16815260200190815260200160002090805190602001906105e5929190610672565b506040805190810160405280601081526020017f57616c6d61727420506861726d61637900000000000000000000000000000000815250600360007305f8ac21e6b8c483c402472ed738aea13d07c31e73ffffffffffffffffffffffffffffffffffffffff168152602001908152602001600020908051906020019061066c929190610672565b50610717565b828054600181600116156101000203166002900490600052602060002090601f016020900481019282601f106106b357805160ff19168380011785556106e1565b828001600101855582156106e1579182015b828111156106e05782518255916020019190600101906106c5565b5b5090506106ee91906106f2565b5090565b61071491905b808211156107105760008160009055506001016106f8565b5090565b90565b610928806107266000396000f30060806040526004361061008e576000357c0100000000000000000000000000000000000000000000000000000000900463ffffffff16806312640b38146100935780635fbc8d141461014f5780636cfa92081461020b578063847b7758146102c757806394c3c20d14610383578063bd2b78e7146103de578063c727b3d914610439578063cd4f819114610494575b600080fd5b34801561009f57600080fd5b506100d4600480360381019080803573ffffffffffffffffffffffffffffffffffffffff1690602001909291905050506104ef565b6040518080602001828103825283818151815260200191508051906020019080838360005b838110156101145780820151818401526020810190506100f9565b50505050905090810190601f1680156101415780820380516001836020036101000a031916815260200191505b509250505060405180910390f35b34801561015b57600080fd5b50610190600480360381019080803573ffffffffffffffffffffffffffffffffffffffff16906020019092919050505061059f565b6040518080602001828103825283818151815260200191508051906020019080838360005b838110156101d05780820151818401526020810190506101b5565b50505050905090810190601f1680156101fd5780820380516001836020036101000a031916815260200191505b509250505060405180910390f35b34801561021757600080fd5b5061024c600480360381019080803573ffffffffffffffffffffffffffffffffffffffff16906020019092919050505061064f565b6040518080602001828103825283818151815260200191508051906020019080838360005b8381101561028c578082015181840152602081019050610271565b50505050905090810190601f1680156102b95780820380516001836020036101000a031916815260200191505b509250505060405180910390f35b3480156102d357600080fd5b50610308600480360381019080803573ffffffffffffffffffffffffffffffffffffffff169060200190929190505050610730565b6040518080602001828103825283818151815260200191508051906020019080838360005b8381101561034857808201518184015260208101905061032d565b50505050905090810190601f1680156103755780820380516001836020036101000a031916815260200191505b509250505060405180910390f35b34801561038f57600080fd5b506103c4600480360381019080803573ffffffffffffffffffffffffffffffffffffffff169060200190929190505050610811565b604051808215151515815260200191505060405180910390f35b3480156103ea57600080fd5b5061041f600480360381019080803573ffffffffffffffffffffffffffffffffffffffff169060200190929190505050610867565b604051808215151515815260200191505060405180910390f35b34801561044557600080fd5b5061047a600480360381019080803573ffffffffffffffffffffffffffffffffffffffff169060200190929190505050610887565b604051808215151515815260200191505060405180910390f35b3480156104a057600080fd5b506104d5600480360381019080803573ffffffffffffffffffffffffffffffffffffffff1690602001909291905050506108a7565b604051808215151515815260200191505060405180910390f35b60026020528060005260406000206000915090508054600181600116156101000203166002900480601f0160208091040260200160405190810160405280929190818152602001828054600181600116156101000203166002900480156105975780601f1061056c57610100808354040283529160200191610597565b820191906000526020600020905b81548152906001019060200180831161057a57829003601f168201915b505050505081565b60036020528060005260406000206000915090508054600181600116156101000203166002900480601f0160208091040260200160405190810160405280929190818152602001828054600181600116156101000203166002900480156106475780601f1061061c57610100808354040283529160200191610647565b820191906000526020600020905b81548152906001019060200180831161062a57829003601f168201915b505050505081565b6060600360008373ffffffffffffffffffffffffffffffffffffffff1673ffffffffffffffffffffffffffffffffffffffff1681526020019081526020016000208054600181600116156101000203166002900480601f0160208091040260200160405190810160405280929190818152602001828054600181600116156101000203166002900480156107245780601f106106f957610100808354040283529160200191610724565b820191906000526020600020905b81548152906001019060200180831161070757829003601f168201915b50505050509050919050565b6060600260008373ffffffffffffffffffffffffffffffffffffffff1673ffffffffffffffffffffffffffffffffffffffff1681526020019081526020016000208054600181600116156101000203166002900480601f0160208091040260200160405190810160405280929190818152602001828054600181600116156101000203166002900480156108055780601f106107da57610100808354040283529160200191610805565b820191906000526020600020905b8154815290600101906020018083116107e857829003601f168201915b50505050509050919050565b6000600160008373ffffffffffffffffffffffffffffffffffffffff1673ffffffffffffffffffffffffffffffffffffffff16815260200190815260200160002060009054906101000a900460ff169050919050565b60016020528060005260406000206000915054906101000a900460ff1681565b60006020528060005260406000206000915054906101000a900460ff1681565b60008060008373ffffffffffffffffffffffffffffffffffffffff1673ffffffffffffffffffffffffffffffffffffffff16815260200190815260200160002060009054906101000a900460ff1690509190505600a165627a7a7230582049286004b6cd4ad66bda614c0f4b8605dab38a798946d119e6eaba70bd9c03080029",
  "source": "pragma solidity ^0.4.23;\r\n\r\ncontract WhitelistRegistry {\r\n    \r\n    mapping(address => bool) public verifiedDoctors;\r\n    mapping(address => bool) public verifiedPharmacies;\r\n    mapping(address => string) public doctorNames;\r\n    mapping(address => string) public pharmacyNames;\r\n\r\n    // constructor\r\n    function WhitelistRegistry() {\r\n        \r\n        // pre-populate doctor mapping with doctor public keys and names\r\n        verifiedDoctors[0x1BDd1734a0BF7870C20c794DeBB3C82FAbB66789] = true;\r\n        verifiedDoctors[0x6a8bd7c2c0d0c6d7ffdd1f6d3d82f83a4c17d22e] = true;\r\n        verifiedDoctors[0x6d1d4f6231cc9d28846827c7744ee78ee507928e] = true;\r\n        \r\n        doctorNames[0x1BDd1734a0BF7870C20c794DeBB3C82FAbB66789] = \"Dr. John Smith\";\r\n        doctorNames[0x6a8bd7c2c0d0c6d7ffdd1f6d3d82f83a4c17d22e] = \"Dr. Elizabeth Hughes\";\r\n        doctorNames[0x6d1d4f6231cc9d28846827c7744ee78ee507928e] = \"Dr. Eric Ward\";\r\n        \r\n        // pre-populate pharmacy mapping with pharmacy public keys and names\r\n        verifiedPharmacies[0x94A5168C78e41c637C1B45544363d76034949Dc5] = true;\r\n        verifiedPharmacies[0x0b70470e3d2b5f264e8e5add8a8ff0e8cd3b6062] = true;\r\n        verifiedPharmacies[0x40f6acb9da087cb9ff9e602a01df3fb6e3157a14] = true;\r\n        verifiedPharmacies[0x05f8ac21e6b8c483c402472ed738aea13d07c31e] = true;\r\n        \r\n        pharmacyNames[0x94A5168C78e41c637C1B45544363d76034949Dc5] = \"CVS Health\";\r\n        pharmacyNames[0x0b70470e3d2b5f264e8e5add8a8ff0e8cd3b6062] = \"Walgreens Pharmacy\";\r\n        pharmacyNames[0x40f6acb9da087cb9ff9e602a01df3fb6e3157a14] = \"Riteaid Pharmacy\";\r\n        pharmacyNames[0x05f8ac21e6b8c483c402472ed738aea13d07c31e] = \"Walmart Pharmacy\";\r\n\r\n    }\r\n    \r\n    // this method checks whether a given public key represents a valid doctor\r\n    function isValidDoctor (address _doctorPublicKey) public view returns (bool) {\r\n        return verifiedDoctors[_doctorPublicKey];\r\n    }\r\n    \r\n    // this method checks whether a given public key represents a valid pharmacy\r\n    function isValidPharmacy (address _pharmacyPublicKey) public view returns (bool) {\r\n        return verifiedPharmacies[_pharmacyPublicKey];\r\n    }\r\n    \r\n    // this method returns the name associated with a doctor's public key\r\n    function getDoctorName (address _doctorPublicKey) public view returns (string) {\r\n        return doctorNames[_doctorPublicKey];\r\n    }\r\n    \r\n    // this method returns the name associated with a pharmacy's public key\r\n    function getPharmacyName (address _pharmacyPublicKey) public view returns (string) {\r\n        return pharmacyNames[_pharmacyPublicKey];\r\n    }\r\n    \r\n}",
  "sourcePath": "C:\\Personal\\Hackathon\\Pharma-Sign\\contracts\\WhitelistRegistry.sol",
  "compiler": {
    "name": "solc",
    "version": "0.4.24+commit.e67f0147.Emscripten.clang"
  },
  "schemaVersion": "2.0.1",
  "updatedAt": "2018-10-13T22:02:25.157Z"
}